:1000000021C05DC179C139C038C037C036C035C0E4
:1000100034C025C132C031C030C02FC02EC02DC069
:100020002CC02BC02AC029C028C027C026C025C08C
:1000300024C023C000FF0100010000FFFF000001F9
:100040000001FF0011241FBECFEFD4E0DEBFCDBF03
:1000500011E0A0E0B1E0EAE1F8E002C005900D9205
:10006000A230B107D9F721E0A2E0B1E001C01D92B2
:10007000AB30B207E1F748D2CEC3C2CF87FF02C090
:10008000459A01C0459886FF02C0449A01C0449831
:1000900085FF02C0439A01C0439884FF02C0429A80
:1000A000089542980895CF93C82F807FE7DF409A44
:1000B000419A8FEC97E00197F1F700C0000041985A
:1000C00040988FEC97E00197F1F700C000008C2F6B
:1000D0008295807FD3DF409A419A8FEC97E0019719
:1000E000F1F700C00000419840988FEC97E001972D
:1000F000F1F700C00000CF910895CF93C82F807F03
:10010000BDDF419A8FEC97E00197F1F700C0000046
:1001100041988FEC97E00197F1F700C000008C2F19
:100120008295807FABDF419A8FEC97E00197F1F7E2
:1001300000C0000041988FEC97E00197F1F700C0F4
:100140000000CF9108958FE295E70197F1F700C085
:10015000000080E093DF4098289841983A9A3B9AB3
:100160003C9A3D9A389A209A399A80E387DF419ADF
:100170008FEC97E00197F1F700C0000041988FE005
:1001800097E20197F1F700C0000080E377DF419A22
:100190008FEC97E00197F1F700C0000041988FECD9
:1001A00097E00197F1F700C0000080E367DF419A14
:1001B0008FEC97E00197F1F700C0000041988FECB9
:1001C00097E00197F1F700C0000080E257DF419A05
:1001D0008FEC97E00197F1F700C0000041988FEC99
:1001E00097E00197F1F700C0000088E286DF8CE01D
:1001F00084DF86E082CF81E080CF623031F06330EF
:1002000031F0613029F4805C03C08C5E01C08C5AEF
:10021000806873CFFF920F931F93CF93DF93F62ED7
:10022000009799F0EC0100E010E01F1571F0112328
:1002300041F0812F8F7029F4023018F40F5F602F86
:10024000DCDF899130DF1F5FF0CFDF91CF911F910D
:100250000F91FF9008958FE050CF8CE04ECF1F920A
:100260000F920FB60F9211248F939F9380910801E4
:100270008150809308018F3FB1F49BE39093080174
:10028000809109018150809309018F3F61F490931F
:10029000090180910A01815080930A018F3F19F46E
:1002A00081E08093040180910301806280930301C7
:1002B0009F918F910F900FBE0F901F9018951F92D6
:1002C0000F920FB60F9211248F939F93F89481E0B1
:1002D0008CBB8FE39CE90197F1F700C000004A99BD
:1002E00003C081E08093060178949F918F910F90D5
:1002F0000FBE0F901F9018951F920F920FB60F927E
:1003000011248F939F93F89482E08CBB8FE39CE938
:100310000197F1F700C000004B9903C081E0809382
:10032000050178949F918F910F900FBE0F901F90B1
:100330001895F89480917000887F80937000809168
:10034000B60080628093B6001092B2008091B10036
:1003500085608093B1008091B6008F71E1F787B31B
:10036000876087BB80917000816080937000789473
:10037000089580917000887F809370008091B6000E
:100380008F7D8093B6008091B6008F71E1F787B3BF
:10039000876087BB089521E030E051E028173907D6
:1003A00060F44BB145274BB9EFE6F7E13197F1F730
:1003B00000C000002F5F3F4FF1CF58980895209163
:1003C0000701220F220F20930701209107012C70B3
:1003D000209307012091070149B139B144FB8827D7
:1003E00080F990E0880F991F35FB992790F9892BA8
:1003F000820F80930701E0910701F0E0EC5CFF4F72
:1004000084910895FC018181811104C080818183E0
:1004100080E3808308951F93CF93DF93CDB7DEB73A
:100420002A970FB6F894DEBF0FBECDBF16DF84E863
:1004300064DE80910A014AE0BE01675F7F4F90E071
:10044000B7D1CE010996DEDF898589838A858A83C3
:100450001AE31B83809109014AE0BE01675F7F4F69
:1004600090E0A6D1CE010996CDDF89858C838A855F
:100470008D831E83809108014AE0BE01675F7F4F34
:1004800090E096D1CE010996BDDF89858F838A855C
:10049000888768E0CE010196BDDE2A960FB6F894F3
:1004A000DEBF0FBECDBFDF91CF911F910895809128
:1004B0000801873918F08BE38093080180910901C6
:1004C000873918F08BE38093090180910A018739FD
:1004D00018F087E180930A01809108018C3310F0B5
:1004E00010920801809109018C3310F010920901DB
:1004F00080910A01883110F010920A018091030165
:100500008062809303010895CF93DF93CDB7DEB768
:1005100060970FB6F894DEBF0FBECDBFF89417B842
:100520008FEF88B914B885B98AB1837F8AB98BB146
:100530008C608BB985E08093690083E08DBB58980F
:10054000509A01DE58DEFE0131969E012F5E3F4F2C
:100550006F018FEF8193E217F307E1F780E8CDDDBC
:1005600060E1C60157DE80ECC8DD60E1C60152DE05
:100570002FEF84E39CE0215080409040E1F700C0E1
:10058000000039DE5F98579A10920A011092090113
:100590001092080180910301806380930301789495
:1005A0005CE0C52EDD24D39460E3B62E8091030178
:1005B00087FD5FC0A09002018091070190E0FFDEFF
:1005C0008A0D80930201823044F1109202018091E1
:1005D000030184FF1BC0809100018E70843051F0B4
:1005E000883071F0823089F48091080181508093C5
:1005F00008010BC08091090181508093090105C059
:1006000080910A01815080930A0151DF809103019A
:1006100086FF03C0806280930301809102018F3FB7
:1006200044F5109202018091030184FF1BC0809168
:1006300000018E70843051F0883071F0823089F47E
:10064000809108018F5F809308010BC080910901A0
:100650008F5F8093090105C080910A018F5F8093AD
:100660000A0125DF8091030186FF03C08062809329
:1006700003014E992DC08FE39CE90197F1F700C06B
:1006800000004E9923C0809101018823E1F09091F0
:10069000030197FD18C09F7B909303018091000197
:1006A000880F8E708093000180910001882339F0BB
:1006B000809100018063892B8093030104C0D09254
:1006C0000001B09203011092010102C0D092010119
:1006D00080910601882399F0109206018CDD80E854
:1006E0000CDD8BE2E0DC9FEF20E782E091502040C0
:1006F0008040E1F700C000007EDDD09200018091D3
:1007000005018823A9F010920501D0920001809183
:10071000090190910A01892B90910801892B41F0E0
:1007200080910301807C80688093030102DE5F9AE0
:1007300080910401882389F0F894109204011092AA
:10074000030110920A0110920901109208015F98AA
:1007500088E290E020DE0DDE78948091030185FF31
:1007600025CF982F9F7D9093030184FF1BC053DEFC
:100770008091030184FF16C0982F9E7099F083FB2F
:10078000002700F910E082FBEE24E0F8F12C0E0DBA
:100790001F1D802F880F800F9C2D981B892F80682C
:1007A000ACDC59DD8091030187FF00CF34DEFECE43
:1007B000BB274A3031F4992322F4BDE2909581950C
:1007C0009F4F01C0BB27FB015527AA27880F991F00
:1007D000AA1FA41710F0A41B83955051B9F7A05D70
:1007E000AA3308F0A95DA193009779F7B111B193ED
:1007F0001192CB0100C0DC01FC01672F71917723BE
:10080000E1F7329704C07C916D9370836291AE17CB
:0A081000BF07C8F30895F894FFCF66
:02081A000101DA
:00000001FF
