:1000000021C05DC179C139C038C037C036C035C0E4
:1000100034C025C132C031C030C02FC02EC02DC069
:100020002CC02BC02AC029C028C027C026C025C08C
:1000300024C023C000FF0100010000FFFF000001F9
:100040000001FF0011241FBECFEFD4E0DEBFCDBF03
:1000500011E0A0E0B1E0E6E7F9E002C005900D9202
:10006000AC32B107D9F721E0ACE2B1E001C01D929A
:10007000AF33B207E1F766D27CC4C2CF87FF02C0BC
:10008000459A01C0459886FF02C0449A01C0449831
:1000900085FF02C0439A01C0439884FF02C0429A80
:1000A000089542980895CF93C82F807FE7DF409A44
:1000B000419A8FEC97E00197F1F700C0000041985A
:1000C00040988FEC97E00197F1F700C000008C2F6B
:1000D0008295807FD3DF409A419A8FEC97E0019719
:1000E000F1F700C00000419840988FEC97E001972D
:1000F000F1F700C00000CF910895CF93C82F807F03
:10010000BDDF419A8FEC97E00197F1F700C0000046
:1001100041988FEC97E00197F1F700C000008C2F19
:100120008295807FABDF419A8FEC97E00197F1F7E2
:1001300000C0000041988FEC97E00197F1F700C0F4
:100140000000CF9108958FE295E70197F1F700C085
:10015000000080E093DF4098289841983A9A3B9AB3
:100160003C9A3D9A389A209A399A80E387DF419ADF
:100170008FEC97E00197F1F700C0000041988FE005
:1001800097E20197F1F700C0000080E377DF419A22
:100190008FEC97E00197F1F700C0000041988FECD9
:1001A00097E00197F1F700C0000080E367DF419A14
:1001B0008FEC97E00197F1F700C0000041988FECB9
:1001C00097E00197F1F700C0000080E257DF419A05
:1001D0008FEC97E00197F1F700C0000041988FEC99
:1001E00097E00197F1F700C0000088E286DF8CE01D
:1001F00084DF86E082CF81E080CF623031F06330EF
:1002000031F0613029F4805C03C08C5E01C08C5AEF
:10021000806873CFFF920F931F93CF93DF93F62ED7
:10022000009799F0EC0100E010E01F1571F0112328
:1002300041F0812F8F7029F4023018F40F5F602F86
:10024000DCDF899130DF1F5FF0CFDF91CF911F910D
:100250000F91FF9008958FE050CF8CE04ECF1F920A
:100260000F920FB60F9211248F939F9380913C01B0
:10027000815080933C018F3FB1F49BE390933C010C
:1002800080913D01815080933D018F3F61F49093B7
:100290003D0180913E01815080933E018F3F19F4D2
:1002A00081E080932E0180912D01806280932D0149
:1002B0009F918F910F900FBE0F901F9018951F92D6
:1002C0000F920FB60F9211248F939F93F89481E0B1
:1002D0008CBB8FE39CE90197F1F700C000004A99BD
:1002E00003C081E08093310178949F918F910F90AA
:1002F0000FBE0F901F9018951F920F920FB60F927E
:1003000011248F939F93F89482E08CBB8FE39CE938
:100310000197F1F700C000004B9903C081E0809382
:10032000300178949F918F910F900FBE0F901F9086
:100330001895F89480917000887F80937000809168
:10034000B60080628093B6001092B2008091B10036
:1003500085608093B1008091B6008F71E1F787B31B
:10036000876087BB80917000816080937000789473
:10037000089580917000887F809370008091B6000E
:100380008F7D8093B6008091B6008F71E1F787B3BF
:10039000876087BB089521E030E051E028173907D6
:1003A00060F44BB145274BB9EFE6F7E13197F1F730
:1003B00000C000002F5F3F4FF1CF58980895209163
:1003C0003201220F220F20933201209132012C7032
:1003D000209332012091320149B139B144FB882781
:1003E00080F990E0880F991F35FB992790F9892BA8
:1003F000820F80933201E0913201F0E0EC5CFF4F1C
:1004000084910895FC018181811104C080818183E0
:1004100080E3808308951F93CF93DF93CDB7DEB73A
:100420002A970FB6F894DEBF0FBECDBF16DF84E863
:1004300064DE80913E014AE0BE01675F7F4F90E03D
:100440004FD2CE010996DEDF898589838A858A832A
:100450001AE31B8380913D014AE0BE01675F7F4F35
:1004600090E03ED2CE010996CDDF89858C838A85C6
:100470008D831E8380913C014AE0BE01675F7F4F00
:1004800090E02ED2CE010996BDDF89858F838A85C3
:10049000888768E0CE010196BDDE2A960FB6F894F3
:1004A000DEBF0FBECDBFDF91CF911F910895809128
:1004B0003C01873918F08BE380933C0180913D012A
:1004C000873918F08BE380933D0180913E01873995
:1004D00018F087E180933E0180913C018C3310F04D
:1004E00010923C0180913D018C3310F010923D013F
:1004F00080913E01883110F010923E0108950F93D3
:100500001F93CF93DF93CAE0D0E0CE010CD28E01CF
:100510000D5C1E4FF80138978083CE01019603D2FF
:10052000F80139978083CE010296FDD1F8013A9700
:1005300080832396C331D10541F7DF91CF911F917D
:100540000F910895F89417B88FEF88B914B885B94A
:100550008AB1837F8AB98BB18C608BB985E0809337
:10056000690083E08DBB5898509AEDDD44DE5F98BA
:10057000579A10923E0110923D0110923C018091D9
:100580002D01806380932D01BADF78947CE0E72E03
:10059000E2E0DE2EFF24F394F0E3CF2EA0E4BA2EA7
:1005A00080912D0187FD83C0A0902C0180913201A4
:1005B00090E005DF8A0D80932C018230D4F11092F7
:1005C0002C0180912D0184FF20C0809100018E704C
:1005D000843051F0883071F0823089F480913C0190
:1005E000815080933C010BC080913D0181508093EC
:1005F0003D0105C080913E01815080933E0157DF4F
:1006000080912D01806280932D0180912D0186FFC4
:1006100010C080912F01815087FD03C080932F016E
:1006200002C0D0922F01E7DD80912D01806280937E
:100630002D0180912C018F3FD4F510922C018091D7
:100640002D0184FF20C0809100018E70843051F014
:10065000883071F0823089F480913C018F5F809303
:100660003C010BC080913D018F5F80933D0105C02F
:1006700080913E018F5F80933E0119DF80912D01B3
:10068000806280932D0180912D0186FF10C08091A2
:100690002F018F5F833019F080932F0102C01092D9
:1006A0002F01A9DD80912D01806280932D014E994B
:1006B00030C08FE39CE90197F1F700C000004E992C
:1006C00026C0809101018823F9F080912D0187FDDA
:1006D0001BC091DD90912D019F7B90932D01809106
:1006E0000001880F8E7080930001809100018823A3
:1006F00039F0809100018063892B80932D0104C023
:10070000F0920001C0922D011092010102C0F092FE
:10071000010180913101882309F458C01092310100
:1007200080912D0186FF04C08F7B80932D014CC0EA
:100730008E7009F447C080912F01282F332727FDA1
:100740003095F901EE0FFF1FE20FF31FED5CFE4F36
:1007500020913C0130913D0140913E012083318345
:10076000428323E08202C001112460913E010A9677
:10077000E2D080912F0123E08202C0011124609118
:100780003D010A96D8D080912F0123E08202C0015A
:10079000112460913C010A96CED03DDE82ECADDCA6
:1007A000E0912F01EE0FFF0BEE5FFE4F68E08081BE
:1007B000918130DD8BECA1DC65E0809108019091A6
:1007C000090128DDB0922D01F092000180913001E5
:1007D0008823D9F010923001F092000180913D0100
:1007E00090913E01892B90913C01892B71F0809171
:1007F0002D01807C806880932D019BDD5F9AFBDC5E
:1008000080912D01806280932D0180912E0188239B
:1008100089F0F89410922E0110922D0110923E0151
:1008200010923D0110923C015F9888E290E0B3DDA8
:10083000A0DD789480912D0185FFB2CE982F9F7D09
:1008400090932D0186FF25C097FD17C080912F0141
:10085000992787FD9095FC01EE0FFF1FE80FF91F08
:10086000ED5CFE4F80819181A28180933C01909349
:100870003D01A0933E011BDECEDD84EC3EDCE09129
:100880002F01EE0FFF0BEE5FFE4F68E0808191813C
:10089000C1DC80912D0184FF1DC0BDDD80912D0143
:1008A00084FF18C0982F9E70A9F083FB992790F9B8
:1008B000C92F20E0D22F82FB002700F910E0C00FE3
:1008C000D11F8C2F880F8C0F2E2D281B822F806814
:1008D00014DCC1DC80912D0187FF62CE9CDD60CEEF
:1008E000BB274A3031F4992322F4BDE290958195DB
:1008F0009F4F01C0BB27FB015527AA27880F991FCF
:10090000AA1FA41710F0A41B83955051B9F7A05D3E
:10091000AA3308F0A95DA193009779F7B111B193BB
:100920001192CB0116C0F999FECF92BD81BDF89A04
:10093000992780B50895262FF999FECF1FBA92BD49
:1009400081BD20BD0FB6F894FA9AF99A0FBE0196B0
:100950000895DC01FC01672F71917723E1F732974D
:1009600004C07C916D9370836291AE17BF07C8F38A
:060970000895F894FFCF8A
:1009760001012201190110010A0173617665640003
:100986007072657365742D33007072657365742DAE
:0C09960032007072657365742D31000032
:00000001FF
