S016000055462D50686F746F7265736973742E73726563A2
S113000021C05DC179C139C038C037C036C035C0E0
S113001034C025C132C031C030C02FC02EC02DC065
S11300202CC02BC02AC029C028C027C026C025C088
S113003024C023C000FF0100010000FFFF000001F5
S11300400001FF0011241FBECFEFD4E0DEBFCDBFFF
S113005011E0A0E0B1E0E2ECF9E002C005900D92FD
S1130060A633B107D9F721E0A6E3B1E001C01D92A0
S1130070A934B207E1F766D2A2C4C2CF87FF02C097
S1130080459A01C0459886FF02C0449A01C044982D
S113009085FF02C0439A01C0439884FF02C0429A7C
S11300A0089542980895CF93C82F807FE7DF409A40
S11300B0419A8FEC97E00197F1F700C00000419856
S11300C040988FEC97E00197F1F700C000008C2F67
S11300D08295807FD3DF409A419A8FEC97E0019715
S11300E0F1F700C00000419840988FEC97E0019729
S11300F0F1F700C00000CF910895CF93C82F807FFF
S1130100BDDF419A8FEC97E00197F1F700C0000042
S113011041988FEC97E00197F1F700C000008C2F15
S11301208295807FABDF419A8FEC97E00197F1F7DE
S113013000C0000041988FEC97E00197F1F700C0F0
S11301400000CF9108958FE295E70197F1F700C081
S1130150000080E093DF4098289841983A9A3B9AAF
S11301603C9A3D9A389A209A399A80E387DF419ADB
S11301708FEC97E00197F1F700C0000041988FE001
S113018097E20197F1F700C0000080E377DF419A1E
S11301908FEC97E00197F1F700C0000041988FECD5
S11301A097E00197F1F700C0000080E367DF419A10
S11301B08FEC97E00197F1F700C0000041988FECB5
S11301C097E00197F1F700C0000080E257DF419A01
S11301D08FEC97E00197F1F700C0000041988FEC95
S11301E097E00197F1F700C0000088E286DF8CE019
S11301F084DF86E082CF81E080CF623031F06330EB
S113020031F0613029F4805C03C08C5E01C08C5AEB
S1130210806873CFFF920F931F93CF93DF93F62ED3
S1130220009799F0EC0100E010E01F1571F0112324
S113023041F0812F8F7029F4023018F40F5F602F82
S1130240DCDF899130DF1F5FF0CFDF91CF911F9109
S11302500F91FF9008958FE050CF8CE04ECF1F9206
S11302600F920FB60F9211248F939F9380914601A2
S11302708150809346018F3FB1F49BE390934601F4
S1130280809147018150809347018F3F61F490939F
S11302904701809148018150809348018F3F19F4B0
S11302A081E0809338018091370180628093370127
S11302B09F918F910F900FBE0F901F9018951F92D2
S11302C00F920FB60F9211248F939F93F89481E0AD
S11302D08CBB8FE39CE90197F1F700C000004A99B9
S11302E003C081E080933B0178949F918F910F909C
S11302F00FBE0F901F9018951F920F920FB60F927A
S113030011248F939F93F89482E08CBB8FE39CE934
S11303100197F1F700C000004B9903C081E080937E
S11303203A0178949F918F910F900FBE0F901F9078
S11303301895F89480917000887F80937000809164
S1130340B60080628093B6001092B2008091B10032
S113035085608093B1008091B6008F71E1F787B317
S1130360876087BB8091700081608093700078946F
S1130370089580917000887F809370008091B6000A
S11303808F7D8093B6008091B6008F71E1F787B3BB
S1130390876087BB089521E030E051E028173907D2
S11303A060F44BB145274BB9EFE6F7E13197F1F72C
S11303B000C000002F5F3F4FF1CF5898089520915F
S11303C03C01220F220F20933C0120913C012C7010
S11303D020933C0120913C0149B139B144FB882769
S11303E080F990E0880F991F35FB992790F9892BA4
S11303F0820F80933C01E0913C01F0E0EC5CFF4F04
S113040084910895FC018181811104C080818183DC
S113041080E3808308951F93CF93DF93CDB7DEB736
S11304202A970FB6F894DEBF0FBECDBF16DF84E85F
S113043064DE809148014AE0BE01675F7F4F90E02F
S113044075D2CE010996DEDF898589838A858A8300
S11304501AE31B83809147014AE0BE01675F7F4F27
S113046090E064D2CE010996CDDF89858C838A859C
S11304708D831E83809146014AE0BE01675F7F4FF2
S113048090E054D2CE010996BDDF89858F838A8599
S1130490888768E0CE010196BDDE2A960FB6F894EF
S11304A0DEBF0FBECDBFDF91CF911F910895809124
S11304B04601873918F08BE3809346018091470108
S11304C0873918F08BE3809347018091480187397D
S11304D018F087E180934801809146018C3310F035
S11304E010924601809147018C3310F0109247011D
S11304F080914801883110F01092480108950F93BB
S11305001F93CF93DF93CAE0D0E0CE0132D28E01A5
S1130510035C1E4FF80138978083CE01019629D2DF
S1130520F80139978083CE01029623D2F8013A97D5
S113053080832396C331D10541F7DF91CF911F9179
S11305400F910895F89417B88FEF88B914B885B946
S11305508AB1837F8AB98BB18C608BB985E0809333
S1130560690083E08DBB5898509AEDDD44DE5F98B6
S1130570579A1092480110924701109246018091B7
S11305803701806380933701BADF7894FF24F394B2
S113059070E3D72EE0E4CE2EFCE0EF2EA2E0BA2EDC
S11305A08091370187FD11C0A090360180913C01F4
S11305B090E005DF8A0D809336018F5F833028F049
S11305C0809137018062809337014E9930C08FE368
S11305D09CE90197F1F700C000004E9926C0809174
S11305E001018823F9F08091370187FD1BC003DEE8
S11305F0909137019F7B9093370180910001880F80
S11306008E708093000180910001882339F08091DD
S113061000018063892B8093370104C0F0920001AC
S1130620D09237011092010102C0F0920101809131
S11306303B01882309F469C010923B018091370182
S113064087FD63C086FF04C08F7B8093370156C04B
S11306508E7009F451C080913901282F332727FD6A
S11306603095F901EE0FFF1FE20FF31FE35CFE4F1D
S11306702091460130914701409148012083318304
S1130680428323E08202C0011124609148010A964A
S113069078D18091390123E08202C0011124609154
S11306A047010B966ED18091390123E08202C0018B
S11306B01124609146010C9664D1ADDE82EC1DDDFF
S11306C0E0913901EE0FFF0BEE5FFE4F68E0808191
S11306D09181A0DD8BEC11DD65E0809108019091A2
S11306E0090198DD8FEF94E32CE081509040204085
S11306F0E1F700C000007FDDC0923701809137012F
S1130700806280933701F092000180913A0188233E
S113071009F43EC010923A01F09200019091370121
S113072097FD17C08091470120914801822B2091A9
S11307304601822B69F1892F807C80688093370180
S1130740F8DD5F9A58DD809137018062809337012C
S11307501FC0F894809137018F77809337015F9899
S113076008DE78948091370180638093370184ECAC
S1130770C4DC68E080910A0190910B014BDD8FEF9E
S113078094E32CE0815090402040E1F700C0000049
S1130790809138018823B1F0F894109238011092B6
S11307A037011092480110924701109246015F9858
S11307B088E290E0F0DDDDDD78948091370180639C
S11307C0809337018091370185FFEACE982F9F7D72
S11307D09093370197FF02C01EDEE2CE86FF41C030
S11307E080913601823054F01092360180913901A3
S11307F081508093390187FDB0923901809136018F
S11308008F3F5CF410923601809139018F5F8093A1
S11308103901833011F410923901809139019927FB
S113082087FD9095FC01EE0FFF1FE80FF91FE35CB5
S1130830FE4F80819181A28180934601909347016C
S1130840A0934801D8DC33DEE6DD84EC56DCE0918D
S11308503901EE0FFF0BEE5FFE4F68E0808191815E
S1130860D9DC8091370184FF9BCE809136018230A0
S1130870ECF010923601809100018E70843051F0BA
S1130880883071F0823089F48091460181508093E0
S113089046010BC08091470181508093470105C0F8
S11308A08091480181508093480101DE8091360196
S11308B08F3FECF410923601809100018E708430E9
S11308C051F0883071F0823089F4809146018F5F55
S11308D0809346010BC0809147018F5F809347014D
S11308E005C0809148018F5F80934801E0DD93DD6E
S11308F08091370184FF54CE982F9E7009F450CE16
S113090083FB992790F9C92F20E0D22F82FB00277F
S113091000F910E0C00FD11F8C2F880F8C0F2E2DE3
S1130920281B822F8068E9DB96DC3ACEBB274A304D
S113093031F4992322F4BDE2909581959F4F01C033
S1130940BB27FB015527AA27880F991FAA1FA417A5
S113095010F0A41B83955051B9F7A05DAA3308F099
S1130960A95DA193009779F7B111B1931192CB01CD
S113097016C0F999FECF92BD81BDF89A992780B52A
S11309800895262FF999FECF1FBA92BD81BD20BDCF
S11309900FB6F894FA9AF99A0FBE01960895DC01FD
S11309A0FC01672F71917723E1F7329704C07C91A2
S11309B06D9370836291AE17BF07C8F30895F894DE
S10509C0FFCF63
S11309C201012D0124011B0115010C0163616E63F8
S11309D2656C656400736176656400707265736545
S11309E2742D33007072657365742D3200707265F4
S10909F27365742D310051
S9030000FC
