:1000000021C05DC179C139C038C037C036C035C0E4
:1000100034C025C132C031C030C02FC02EC02DC069
:100020002CC02BC02AC029C028C027C026C025C08C
:1000300024C023C000FF0100010000FFFF000001F9
:100040000001FF0011241FBECFEFD4E0DEBFCDBF03
:1000500011E0A0E0B1E0E4EDF9E002C005900D92FE
:10006000A034B107D9F721E0A0E4B1E001C01D92AE
:10007000A335B207E1F766D2ABC4C2CF87FF02C097
:10008000459A01C0459886FF02C0449A01C0449831
:1000900085FF02C0439A01C0439884FF02C0429A80
:1000A000089542980895CF93C82F807FE7DF409A44
:1000B000419A8FEC97E00197F1F700C0000041985A
:1000C00040988FEC97E00197F1F700C000008C2F6B
:1000D0008295807FD3DF409A419A8FEC97E0019719
:1000E000F1F700C00000419840988FEC97E001972D
:1000F000F1F700C00000CF910895CF93C82F807F03
:10010000BDDF419A8FEC97E00197F1F700C0000046
:1001100041988FEC97E00197F1F700C000008C2F19
:100120008295807FABDF419A8FEC97E00197F1F7E2
:1001300000C0000041988FEC97E00197F1F700C0F4
:100140000000CF9108958FE295E70197F1F700C085
:10015000000080E093DF4098289841983A9A3B9AB3
:100160003C9A3D9A389A209A399A80E387DF419ADF
:100170008FEC97E00197F1F700C0000041988FE005
:1001800097E20197F1F700C0000080E377DF419A22
:100190008FEC97E00197F1F700C0000041988FECD9
:1001A00097E00197F1F700C0000080E367DF419A14
:1001B0008FEC97E00197F1F700C0000041988FECB9
:1001C00097E00197F1F700C0000080E257DF419A05
:1001D0008FEC97E00197F1F700C0000041988FEC99
:1001E00097E00197F1F700C0000088E286DF8CE01D
:1001F00084DF86E082CF81E080CF623031F06330EF
:1002000031F0613029F4805C03C08C5E01C08C5AEF
:10021000806873CFFF920F931F93CF93DF93F62ED7
:10022000009799F0EC0100E010E01F1571F0112328
:1002300041F0812F8F7029F4023018F40F5F602F86
:10024000DCDF899130DF1F5FF0CFDF91CF911F910D
:100250000F91FF9008958FE050CF8CE04ECF1F920A
:100260000F920FB60F9211248F939F93809150019C
:100270008150809350018F3FB1F49BE390935001E4
:10028000809151018150809351018F3F61F490938F
:100290005101809152018150809352018F3F19F496
:1002A00081E080934201809141018062809341010D
:1002B0009F918F910F900FBE0F901F9018951F92D6
:1002C0000F920FB60F9211248F939F93F89481E0B1
:1002D0008CBB8FE39CE90197F1F700C000004A99BD
:1002E00003C081E08093450178949F918F910F9096
:1002F0000FBE0F901F9018951F920F920FB60F927E
:1003000011248F939F93F89482E08CBB8FE39CE938
:100310000197F1F700C000004B9903C081E0809382
:10032000440178949F918F910F900FBE0F901F9072
:100330001895F89480917000887F80937000809168
:10034000B60080628093B6001092B2008091B10036
:1003500085608093B1008091B6008F71E1F787B31B
:10036000876087BB80917000816080937000789473
:10037000089580917000887F809370008091B6000E
:100380008F7D8093B6008091B6008F71E1F787B3BF
:10039000876087BB089521E030E051E028173907D6
:1003A00060F44BB145274BB9EFE6F7E13197F1F730
:1003B00000C000002F5F3F4FF1CF58980895209163
:1003C0004601220F220F20934601209146012C70F6
:1003D000209346012091460149B139B144FB882759
:1003E00080F990E0880F991F35FB992790F9892BA8
:1003F000820F80934601E0914601F0E0EC5CFF4FF4
:1004000084910895FC018181811104C080818183E0
:1004100080E3808308951F93CF93DF93CDB7DEB73A
:100420002A970FB6F894DEBF0FBECDBF16DF84E863
:1004300064DE809152014AE0BE01675F7F4F90E029
:100440007ED2CE010996DEDF898589838A858A83FB
:100450001AE31B83809151014AE0BE01675F7F4F21
:1004600090E06DD2CE010996CDDF89858C838A8597
:100470008D831E83809150014AE0BE01675F7F4FEC
:1004800090E05DD2CE010996BDDF89858F838A8594
:10049000888768E0CE010196BDDE2A960FB6F894F3
:1004A000DEBF0FBECDBFDF91CF911F910895809128
:1004B0005001873918F08BE38093500180915101EE
:1004C000873918F08BE3809351018091520187396D
:1004D00018F087E180935201809150018C3310F025
:1004E00010925001809151018C3310F01092510103
:1004F00080915201883110F01092520108950F93AB
:100500001F93CF93DF93CAE0D0E0CE013BD28E01A0
:10051000095B1E4FF80138978083CE01019632D2D5
:10052000F80139978083CE0102962CD2F8013A97D0
:1005300080832396C331D10541F7DF91CF911F917D
:100540000F910895F89417B88FEF88B914B885B94A
:100550008AB1837F8AB98BB18C608BB985E0809337
:10056000690083E08DBB5898509AEDDD44DE5F98BA
:10057000579A10925201109251011092500180919D
:100580004101806380934101BADF7894FF24F394A2
:1005900070E3D72EE0E4CE2EFCE0EF2EA2E0BA2EE0
:1005A0008091410187FD11C0A090400180914601DA
:1005B00090E005DF8A0D809340018F5F833028F043
:1005C000809141018062809341014E9930C08FE358
:1005D0009CE90197F1F700C000004E9926C0809178
:1005E00001018823F9F08091410187FD1BC003DEE2
:1005F000909141019F7B9093410180910001880F70
:100600008E708093000180910001882339F08091E1
:1006100000018063892B8093410104C0F0920001A6
:10062000D09241011092010102C0F092010180912B
:100630004501882309F469C0109245018091410168
:1006400087FD63C086FF04C08F7B8093410156C045
:100650008E7009F451C080914301282F332727FD64
:100660003095F901EE0FFF1FE20FF31FE95BFE4F1C
:1006700020915001309151014091520120833183EA
:10068000428323E08202C0011124609152010A9644
:1006900081D18091430123E08202C0011124609145
:1006A00051010B9677D18091430123E08202C00172
:1006B0001124609150010C966DD1ADDE82EC1DDDF0
:1006C000E0914301EE0FFF0BEE5FFE4F68E080818B
:1006D0009181A0DD8BEC11DD65E0809108019091A6
:1006E000090198DD8FEF94E32CE081509040204089
:1006F000E1F700C000007FDDC0924101809141011F
:10070000806280934101F09200018091440188232E
:1007100009F43EC010924401F09200019091410111
:1007200097FD17C08091510120915201822B209199
:100730005001822B69F1892F807C80688093410170
:10074000F8DD5F9A58DD809141018062809341011C
:100750001FC0F894809141018F77809341015F9889
:1007600008DE78948091410180638093410184EC9C
:10077000C4DC68E080910A0190910B014BDD8FEFA2
:1007800094E32CE0815090402040E1F700C000004D
:10079000809142018823F9F0F8941092420110925E
:1007A00041011092520110925101109250015F9834
:1007B00088E290E0F0DDDDDD78941DDD809141017F
:1007C00080638093410185EC98DC66E080910C01A8
:1007D00090910D011FDD8091410185FFE1CE982FA1
:1007E0009F7D9093410197FF02C015DED9CE86FF11
:1007F00041C080914001823054F0109240018091BC
:10080000430181508093430187FDB0924301809161
:1008100040018F3F5CF410924001809143018F5F53
:1008200080934301833011F410924301809143017E
:10083000992787FD9095FC01EE0FFF1FE80FF91F28
:10084000E95BFE4F80819181A2818093500190935A
:100850005101A0935201CFDC2ADEDDDD84EC4DDCBA
:10086000E0914301EE0FFF0BEE5FFE4F68E08081E9
:100870009181D0DC8091410184FF92CE8091400132
:100880008230ECF010924001809100018E70843033
:1008900051F0883071F0823089F48091500181509C
:1008A000809350010BC08091510181508093510180
:1008B00005C080915201815080935201F8DD8091F2
:1008C00040018F3FECF410924001809100018E7046
:1008D000843051F0883071F0823089F48091500179
:1008E0008F5F809350010BC0809151018F5F809387
:1008F000510105C0809152018F5F80935201D7DD75
:100900008ADD8091410184FF4BCE982F9E7009F4BF
:1009100047CE83FB992790F9C92F20E0D22F82FB85
:10092000002700F910E0C00FD11F8C2F880F8C0F0B
:100930002E2D281B822F8068E0DB8DDC31CEBB277B
:100940004A3031F4992322F4BDE2909581959F4F6E
:1009500001C0BB27FB015527AA27880F991FAA1F93
:10096000A41710F0A41B83955051B9F7A05DAA33CA
:1009700008F0A95DA193009779F7B111B193119295
:10098000CB0116C0F999FECF92BD81BDF89A992787
:1009900080B50895262FF999FECF1FBA92BD81BD6B
:1009A00020BD0FB6F894FA9AF99A0FBE01960895F1
:1009B000DC01FC01672F71917723E1F7329704C0C6
:1009C0007C916D9370836291AE17BF07C8F3089551
:0409D000F894FFCFC9
:1009D400010136012D0124011E0115010E014649B4
:1009E4004E4953480063616E63656C6564007361CE
:1009F400766564007072657365742D33007072657A
:100A04007365742D32007072657365742D31000046
:00000001FF
